{
  "_format": "hh-sol-artifact-1",
  "contractName": "AssessmentRewards",
  "sourceName": "contracts/AssessmentRewards.sol",
  "abi": [
    {
      "inputs": [
        {
          "internalType": "address",
          "name": "_rewardToken",
          "type": "address"
        }
      ],
      "stateMutability": "nonpayable",
      "type": "constructor"
    },
    {
      "inputs": [
        {
          "internalType": "address",
          "name": "owner",
          "type": "address"
        }
      ],
      "name": "OwnableInvalidOwner",
      "type": "error"
    },
    {
      "inputs": [
        {
          "internalType": "address",
          "name": "account",
          "type": "address"
        }
      ],
      "name": "OwnableUnauthorizedAccount",
      "type": "error"
    },
    {
      "inputs": [],
      "name": "ReentrancyGuardReentrantCall",
      "type": "error"
    },
    {
      "anonymous": false,
      "inputs": [
        {
          "indexed": true,
          "internalType": "address",
          "name": "user",
          "type": "address"
        },
        {
          "indexed": false,
          "internalType": "uint256",
          "name": "day",
          "type": "uint256"
        },
        {
          "indexed": false,
          "internalType": "uint256",
          "name": "claimCount",
          "type": "uint256"
        }
      ],
      "name": "DailyLimitReached",
      "type": "event"
    },
    {
      "anonymous": false,
      "inputs": [
        {
          "indexed": true,
          "internalType": "address",
          "name": "previousOwner",
          "type": "address"
        },
        {
          "indexed": true,
          "internalType": "address",
          "name": "newOwner",
          "type": "address"
        }
      ],
      "name": "OwnershipTransferred",
      "type": "event"
    },
    {
      "anonymous": false,
      "inputs": [
        {
          "indexed": true,
          "internalType": "address",
          "name": "user",
          "type": "address"
        },
        {
          "indexed": false,
          "internalType": "uint256",
          "name": "score",
          "type": "uint256"
        },
        {
          "indexed": true,
          "internalType": "bytes32",
          "name": "assessmentId",
          "type": "bytes32"
        },
        {
          "indexed": false,
          "internalType": "uint256",
          "name": "tokensMinted",
          "type": "uint256"
        },
        {
          "indexed": false,
          "internalType": "uint256",
          "name": "day",
          "type": "uint256"
        },
        {
          "indexed": false,
          "internalType": "string",
          "name": "courseCode",
          "type": "string"
        }
      ],
      "name": "RewardClaimed",
      "type": "event"
    },
    {
      "inputs": [],
      "name": "MAX_DAILY_CLAIMS",
      "outputs": [
        {
          "internalType": "uint256",
          "name": "",
          "type": "uint256"
        }
      ],
      "stateMutability": "view",
      "type": "function"
    },
    {
      "inputs": [],
      "name": "PASSING_SCORE",
      "outputs": [
        {
          "internalType": "uint256",
          "name": "",
          "type": "uint256"
        }
      ],
      "stateMutability": "view",
      "type": "function"
    },
    {
      "inputs": [],
      "name": "TOKENS_PER_PASS",
      "outputs": [
        {
          "internalType": "uint256",
          "name": "",
          "type": "uint256"
        }
      ],
      "stateMutability": "view",
      "type": "function"
    },
    {
      "inputs": [
        {
          "internalType": "address",
          "name": "user",
          "type": "address"
        }
      ],
      "name": "canClaim",
      "outputs": [
        {
          "internalType": "bool",
          "name": "",
          "type": "bool"
        }
      ],
      "stateMutability": "view",
      "type": "function"
    },
    {
      "inputs": [
        {
          "internalType": "uint256",
          "name": "score",
          "type": "uint256"
        },
        {
          "internalType": "bytes32",
          "name": "assessmentId",
          "type": "bytes32"
        },
        {
          "internalType": "string",
          "name": "courseCode",
          "type": "string"
        }
      ],
      "name": "claimReward",
      "outputs": [],
      "stateMutability": "nonpayable",
      "type": "function"
    },
    {
      "inputs": [
        {
          "internalType": "address",
          "name": "",
          "type": "address"
        },
        {
          "internalType": "uint256",
          "name": "",
          "type": "uint256"
        }
      ],
      "name": "dailyClaims",
      "outputs": [
        {
          "internalType": "uint256",
          "name": "count",
          "type": "uint256"
        },
        {
          "internalType": "uint256",
          "name": "lastClaimTimestamp",
          "type": "uint256"
        }
      ],
      "stateMutability": "view",
      "type": "function"
    },
    {
      "inputs": [
        {
          "internalType": "address",
          "name": "user",
          "type": "address"
        },
        {
          "internalType": "uint256",
          "name": "day",
          "type": "uint256"
        }
      ],
      "name": "getClaimInfo",
      "outputs": [
        {
          "internalType": "uint256",
          "name": "count",
          "type": "uint256"
        },
        {
          "internalType": "uint256",
          "name": "lastClaimTimestamp",
          "type": "uint256"
        }
      ],
      "stateMutability": "view",
      "type": "function"
    },
    {
      "inputs": [],
      "name": "getCurrentDay",
      "outputs": [
        {
          "internalType": "uint256",
          "name": "",
          "type": "uint256"
        }
      ],
      "stateMutability": "view",
      "type": "function"
    },
    {
      "inputs": [
        {
          "internalType": "address",
          "name": "user",
          "type": "address"
        }
      ],
      "name": "getTodayClaimCount",
      "outputs": [
        {
          "internalType": "uint256",
          "name": "",
          "type": "uint256"
        }
      ],
      "stateMutability": "view",
      "type": "function"
    },
    {
      "inputs": [],
      "name": "owner",
      "outputs": [
        {
          "internalType": "address",
          "name": "",
          "type": "address"
        }
      ],
      "stateMutability": "view",
      "type": "function"
    },
    {
      "inputs": [],
      "name": "renounceOwnership",
      "outputs": [],
      "stateMutability": "nonpayable",
      "type": "function"
    },
    {
      "inputs": [],
      "name": "rewardToken",
      "outputs": [
        {
          "internalType": "contract AWSRewardToken",
          "name": "",
          "type": "address"
        }
      ],
      "stateMutability": "view",
      "type": "function"
    },
    {
      "inputs": [
        {
          "internalType": "address",
          "name": "_rewardToken",
          "type": "address"
        }
      ],
      "name": "setRewardToken",
      "outputs": [],
      "stateMutability": "nonpayable",
      "type": "function"
    },
    {
      "inputs": [
        {
          "internalType": "address",
          "name": "newOwner",
          "type": "address"
        }
      ],
      "name": "transferOwnership",
      "outputs": [],
      "stateMutability": "nonpayable",
      "type": "function"
    }
  ],
  "bytecode": "0x608060405234801561001057600080fd5b50604051610a92380380610a9283398101604081905261002f91610140565b338061005657604051631e4fbdf760e01b8152600060048201526024015b60405180910390fd5b61005f816100f0565b50600180556001600160a01b0381166100cb5760405162461bcd60e51b815260206004820152602860248201527f4173736573736d656e74526577617264733a20696e76616c696420746f6b656e604482015267206164647265737360c01b606482015260840161004d565b600280546001600160a01b0319166001600160a01b0392909216919091179055610170565b600080546001600160a01b038381166001600160a01b0319831681178455604051919092169283917f8be0079c531659141344cd1fd0a4f28419497f9722a3daafe3b4186f6b6457e09190a35050565b60006020828403121561015257600080fd5b81516001600160a01b038116811461016957600080fd5b9392505050565b6109138061017f6000396000f3fe608060405234801561001057600080fd5b50600436106100ea5760003560e01c80638a47d33b1161008c578063bf3506c111610066578063bf3506c11461021c578063c4755a211461023f578063f2fde38b1461024e578063f7c618c11461026157600080fd5b80638a47d33b146101d15780638aee8127146101e45780638da5cb5b146101f757600080fd5b80633e6968b6116100c85780633e6968b6146101ae57806352588f06146101b65780636d61fc07146101bf578063715018a6146101c757600080fd5b806316d0c744146100ef5780632dbf423b1461015b5780633c42f64b1461017c575b600080fd5b6101416100fd366004610703565b6001600160a01b0391909116600090815260036020908152604080832093835292815290829020825180840190935280548084526001909101549290910182905291565b604080519283526020830191909152015b60405180910390f35b61016e61016936600461072d565b610274565b604051908152602001610152565b61014161018a366004610703565b60036020908152600092835260408084209091529082529020805460019091015482565b61016e6102ac565b61016e6102bc81565b61016e600381565b6101cf6102c0565b005b6101cf6101df366004610765565b6102d4565b6101cf6101f236600461072d565b61051b565b6000546001600160a01b03165b6040516001600160a01b039091168152602001610152565b61022f61022a36600461072d565b6105ac565b6040519015158152602001610152565b61016e670de0b6b3a764000081565b6101cf61025c36600461072d565b610602565b600254610204906001600160a01b031681565b60008061027f6102ac565b6001600160a01b039093166000908152600360209081526040808320958352949052929092205492915050565b60006102bb6201518042610831565b905090565b6102c8610640565b6102d2600061066d565b565b6102dc6106bd565b6102bc83101561034c5760405162461bcd60e51b815260206004820152603060248201527f4173736573736d656e74526577617264733a2073636f72652062656c6f77207060448201526f185cdcda5b99c81d1a1c995cda1bdb1960821b60648201526084015b60405180910390fd5b3360006103576102ac565b6001600160a01b0383166000908152600360208181526040808420858552909152909120805492935091106103dd5760405162461bcd60e51b815260206004820152602660248201527f4173736573736d656e74526577617264733a206461696c79206c696d69742072604482015265195858da195960d21b6064820152608401610343565b80548160006103eb83610853565b9091555050426001820155600254604051634d24848760e11b81526001600160a01b038581166004830152670de0b6b3a7640000602483015290911690639a49090e90604401600060405180830381600087803b15801561044b57600080fd5b505af115801561045f573d6000803e3d6000fd5b5050505084836001600160a01b03167fc6ffd971aee9fd6824460e6730c489b04a619332ce6ddb03bd6e53b99738180588670de0b6b3a764000086896040516104ab949392919061087a565b60405180910390a380546002190161050a5780546040516001600160a01b038516917fd669607932b4b86ab223c8921367d517f03e29d19f1bd518aa432a213ab257d79161050191868252602082015260400190565b60405180910390a25b50505061051660018055565b505050565b610523610640565b6001600160a01b03811661058a5760405162461bcd60e51b815260206004820152602860248201527f4173736573736d656e74526577617264733a20696e76616c696420746f6b656e604482015267206164647265737360c01b6064820152608401610343565b600280546001600160a01b0319166001600160a01b0392909216919091179055565b6000806105b76102ac565b6001600160a01b039093166000908152600360208181526040808420968452958152918590208551808701909652805480875260019091015495909201949094529290921092915050565b61060a610640565b6001600160a01b03811661063457604051631e4fbdf760e01b815260006004820152602401610343565b61063d8161066d565b50565b6000546001600160a01b031633146102d25760405163118cdaa760e01b8152336004820152602401610343565b600080546001600160a01b038381166001600160a01b0319831681178455604051919092169283917f8be0079c531659141344cd1fd0a4f28419497f9722a3daafe3b4186f6b6457e09190a35050565b6002600154036106e057604051633ee5aeb560e01b815260040160405180910390fd5b6002600155565b80356001600160a01b03811681146106fe57600080fd5b919050565b6000806040838503121561071657600080fd5b61071f836106e7565b946020939093013593505050565b60006020828403121561073f57600080fd5b610748826106e7565b9392505050565b634e487b7160e01b600052604160045260246000fd5b60008060006060848603121561077a57600080fd5b8335925060208401359150604084013567ffffffffffffffff81111561079f57600080fd5b8401601f810186136107b057600080fd5b803567ffffffffffffffff8111156107ca576107ca61074f565b604051601f8201601f19908116603f0116810167ffffffffffffffff811182821017156107f9576107f961074f565b60405281815282820160200188101561081157600080fd5b816020840160208301376000602083830101528093505050509250925092565b60008261084e57634e487b7160e01b600052601260045260246000fd5b500490565b60006001820161087357634e487b7160e01b600052601160045260246000fd5b5060010190565b848152836020820152826040820152608060608201526000825180608084015260005b818110156108ba57602081860181015160a086840101520161089d565b50600060a0828501015260a0601f19601f8301168401019150509594505050505056fea2646970667358221220167315a201fedc7318134517ca3f80ac96b8273f0688cc8420249f3130a102a064736f6c634300081c0033",
  "linkReferences": {},
  "deployedLinkReferences": {}
}